{"abi":[{"type":"function","name":"args","inputs":[],"outputs":[{"name":"","type":"bytes","internalType":"bytes"}],"stateMutability":"view"},{"type":"function","name":"binary_check","inputs":[],"outputs":[],"stateMutability":"nonpayable"},{"type":"function","name":"bytesToString","inputs":[{"name":"data","type":"bytes","internalType":"bytes"}],"outputs":[{"name":"","type":"string","internalType":"string"}],"stateMutability":"pure"},{"type":"function","name":"code","inputs":[],"outputs":[{"name":"","type":"string","internalType":"string"}],"stateMutability":"view"},{"type":"function","name":"const_overrides","inputs":[{"name":"","type":"uint256","internalType":"uint256"}],"outputs":[{"name":"key","type":"string","internalType":"string"},{"name":"value","type":"string","internalType":"string"}],"stateMutability":"view"},{"type":"function","name":"creation_code","inputs":[{"name":"file","type":"string","internalType":"string"}],"outputs":[{"name":"bytecode","type":"bytes","internalType":"bytes"}],"stateMutability":"payable"},{"type":"function","name":"creation_code_with_args","inputs":[{"name":"file","type":"string","internalType":"string"}],"outputs":[{"name":"bytecode","type":"bytes","internalType":"bytes"}],"stateMutability":"payable"},{"type":"function","name":"deploy","inputs":[{"name":"file","type":"string","internalType":"string"}],"outputs":[{"name":"","type":"address","internalType":"address"}],"stateMutability":"payable"},{"type":"function","name":"deployer","inputs":[],"outputs":[{"name":"","type":"address","internalType":"address"}],"stateMutability":"view"},{"type":"function","name":"evm_version","inputs":[],"outputs":[{"name":"","type":"string","internalType":"string"}],"stateMutability":"view"},{"type":"function","name":"get_evm_version","inputs":[],"outputs":[{"name":"","type":"string","internalType":"string"}],"stateMutability":"view"},{"type":"function","name":"set_broadcast","inputs":[{"name":"broadcast","type":"bool","internalType":"bool"}],"outputs":[{"name":"","type":"address","internalType":"contract HuffConfig"}],"stateMutability":"nonpayable"},{"type":"function","name":"should_broadcast","inputs":[],"outputs":[{"name":"","type":"bool","internalType":"bool"}],"stateMutability":"view"},{"type":"function","name":"value","inputs":[],"outputs":[{"name":"","type":"uint256","internalType":"uint256"}],"stateMutability":"view"},{"type":"function","name":"vm","inputs":[],"outputs":[{"name":"","type":"address","internalType":"contract Vm"}],"stateMutability":"view"},{"type":"function","name":"with_addr_constant","inputs":[{"name":"key","type":"string","internalType":"string"},{"name":"value_","type":"address","internalType":"address"}],"outputs":[{"name":"","type":"address","internalType":"contract HuffConfig"}],"stateMutability":"nonpayable"},{"type":"function","name":"with_args","inputs":[{"name":"args_","type":"bytes","internalType":"bytes"}],"outputs":[{"name":"","type":"address","internalType":"contract HuffConfig"}],"stateMutability":"nonpayable"},{"type":"function","name":"with_bytes32_constant","inputs":[{"name":"key","type":"string","internalType":"string"},{"name":"value_","type":"bytes32","internalType":"bytes32"}],"outputs":[{"name":"","type":"address","internalType":"contract HuffConfig"}],"stateMutability":"nonpayable"},{"type":"function","name":"with_code","inputs":[{"name":"code_","type":"string","internalType":"string"}],"outputs":[{"name":"","type":"address","internalType":"contract HuffConfig"}],"stateMutability":"nonpayable"},{"type":"function","name":"with_constant","inputs":[{"name":"key","type":"string","internalType":"string"},{"name":"value_","type":"string","internalType":"string"}],"outputs":[{"name":"","type":"address","internalType":"contract HuffConfig"}],"stateMutability":"nonpayable"},{"type":"function","name":"with_deployer","inputs":[{"name":"_deployer","type":"address","internalType":"address"}],"outputs":[{"name":"","type":"address","internalType":"contract HuffConfig"}],"stateMutability":"nonpayable"},{"type":"function","name":"with_evm_version","inputs":[{"name":"_evm_version","type":"string","internalType":"string"}],"outputs":[{"name":"","type":"address","internalType":"contract HuffConfig"}],"stateMutability":"nonpayable"},{"type":"function","name":"with_uint_constant","inputs":[{"name":"key","type":"string","internalType":"string"},{"name":"value_","type":"uint256","internalType":"uint256"}],"outputs":[{"name":"","type":"address","internalType":"contract HuffConfig"}],"stateMutability":"nonpayable"},{"type":"function","name":"with_value","inputs":[{"name":"value_","type":"uint256","internalType":"uint256"}],"outputs":[{"name":"","type":"address","internalType":"contract HuffConfig"}],"stateMutability":"nonpayable"}],"bytecode":{"object":"0x60806040523060035f6101000a81548173ffffffffffffffffffffffffffffffffffffffff021916908373ffffffffffffffffffffffffffffffffffffffff16021790555034801561004f575f80fd5b50613fa98061005d5f395ff3fe60806040526004361061014a575f3560e01c80636b07af10116100b5578063c76023161161006e578063c7602316146104ef578063d5f394881461051f578063dd1ec82414610549578063df9f3dee14610573578063e5df3076146105af578063e9e68e1d146105eb5761014a565b80636b07af10146103ad5780636fcef9d5146103e95780637dc2225f146104255780638093a1b91461046157806392bb10d71461049d578063c5effd02146104d95761014a565b806328764d141161010757806328764d141461028d57806339614e4f146102c95780633a768463146103055780633fa4f2451461032f5780634e9b75b61461035957806368f192f2146103835761014a565b80630c7d16811461014e5780630cc766161461018b5780631a8f1a1c146101bb578063220481ef146101f75780632232d9081461022757806324c12bf614610263575b5f80fd5b348015610159575f80fd5b50610174600480360381019061016f9190612714565b610615565b6040516101829291906127c9565b60405180910390f35b6101a560048036038101906101a0919061292a565b610750565b6040516101b291906129c3565b60405180910390f35b3480156101c6575f80fd5b506101e160048036038101906101dc919061292a565b610787565b6040516101ee9190612a5d565b60405180910390f35b610211600480360381019061020c919061292a565b6107a0565b60405161021e91906129c3565b60405180910390f35b348015610232575f80fd5b5061024d6004803603810190610248919061292a565b6115c0565b60405161025a9190612a5d565b60405180910390f35b34801561026e575f80fd5b506102776115d8565b6040516102849190612a76565b60405180910390f35b348015610298575f80fd5b506102b360048036038101906102ae9190612b34565b611663565b6040516102c09190612a5d565b60405180910390f35b3480156102d4575f80fd5b506102ef60048036038101906102ea9190612b34565b61167c565b6040516102fc9190612a76565b60405180910390f35b348015610310575f80fd5b5061031961196e565b6040516103269190612b9b565b60405180910390f35b34801561033a575f80fd5b5061034361199a565b6040516103509190612bc3565b60405180910390f35b348015610364575f80fd5b5061036d6119a0565b60405161037a91906129c3565b60405180910390f35b34801561038e575f80fd5b50610397611a2c565b6040516103a49190612a76565b60405180910390f35b3480156103b8575f80fd5b506103d360048036038101906103ce9190612bdc565b611ab8565b6040516103e09190612a5d565b60405180910390f35b3480156103f4575f80fd5b5061040f600480360381019061040a9190612c71565b611b52565b60405161041c9190612a5d565b60405180910390f35b348015610430575f80fd5b5061044b60048036038101906104469190612714565b611bec565b6040516104589190612a5d565b60405180910390f35b34801561046c575f80fd5b5061048760048036038101906104829190612ccb565b611bfc565b6040516104949190612a5d565b60405180910390f35b3480156104a8575f80fd5b506104c360048036038101906104be9190612d41565b611c6f565b6040516104d09190612a5d565b60405180910390f35b3480156104e4575f80fd5b506104ed611cb8565b005b6105096004803603810190610504919061292a565b611ecd565b6040516105169190612d7b565b60405180910390f35b34801561052a575f80fd5b50610533611ffa565b6040516105409190612d7b565b60405180910390f35b348015610554575f80fd5b5061055d61201f565b60405161056a9190612a76565b60405180910390f35b34801561057e575f80fd5b5061059960048036038101906105949190612dc9565b612125565b6040516105a69190612a5d565b60405180910390f35b3480156105ba575f80fd5b506105d560048036038101906105d09190612e27565b612148565b6040516105e29190612a5d565b60405180910390f35b3480156105f6575f80fd5b506105ff6121e2565b60405161060c9190612e90565b60405180910390f35b60058181548110610624575f80fd5b905f5260205f2090600202015f91509050805f01805461064390612ed6565b80601f016020809104026020016040519081016040528092919081815260200182805461066f90612ed6565b80156106ba5780601f10610691576101008083540402835291602001916106ba565b820191905f5260205f20905b81548152906001019060200180831161069d57829003601f168201915b5050505050908060010180546106cf90612ed6565b80601f01602080910402602001604051908101604052809291908181526020018280546106fb90612ed6565b80156107465780601f1061071d57610100808354040283529160200191610746565b820191905f5260205f20905b81548152906001019060200180831161072957829003601f168201915b5050505050905082565b606061075b826107a0565b9050806001604051602001610771929190612fd2565b6040516020818303038152906040529050919050565b5f81600490816107979190613189565b50309050919050565b60606107aa611cb8565b5f6107b4836121f5565b90505f6107f56040518060400160405280600181526020017f2f000000000000000000000000000000000000000000000000000000000000008152506121f5565b90505f600161080d838561222290919063ffffffff16565b6108179190613285565b67ffffffffffffffff8111156108305761082f612806565b5b60405190808252806020026020018201604052801561086357816020015b606081526020019060019003908161084e5790505b5090505f5b81518110156108bd5761088c61088784866122c290919063ffffffff16565b6122dc565b82828151811061089f5761089e6132b8565b5b602002602001018190525080806108b5906132e5565b915050610868565b505f600167ffffffffffffffff8111156108da576108d9612806565b5b60405190808252806020026020018201604052801561090d57816020015b60608152602001906001900390816108f85790505b509050604051806060016040528060288152602001613f4c60289139815f8151811061093c5761093b6132b8565b5b60200260200101819052505f7f885cb69240a935d632d79c317109709ecfa91a80626ff3989d68f67f5b1dd12d5f1c60601b60601c73ffffffffffffffffffffffffffffffffffffffff166389160467836040518263ffffffff1660e01b81526004016109a9919061342f565b5f604051808303815f875af11580156109c4573d5f803e3d5ffd5b505050506040513d5f823e3d601f19601f820116820180604052508101906109ec91906134bd565b90505f610a27826109fc90613527565b604051602001610a0c919061359c565b60405160208183030381529060405280519060200120612354565b90505f845f81518110610a3d57610a3c6132b8565b5b602002602001015190506001855111610a79578181604051602001610a63929190613615565b6040516020818303038152906040529050610b34565b5f600190505b60018651610a8d9190613647565b811015610ae55781868281518110610aa857610aa76132b8565b5b6020026020010151604051602001610ac19291906136a0565b60405160208183030381529060405291508080610add906132e5565b915050610a7f565b5080828660018851610af79190613647565b81518110610b0857610b076132b8565b5b6020026020010151604051602001610b22939291906136d2565b60405160208183030381529060405290505b5f600367ffffffffffffffff811115610b5057610b4f612806565b5b604051908082528060200260200182016040528015610b8357816020015b6060815260200190600190039081610b6e5790505b509050604051806060016040528060298152602001613ef660299139815f81518110610bb257610bb16132b8565b5b602002602001018190525081604051602001610bce919061376c565b60405160208183030381529060405281600181518110610bf157610bf06132b8565b5b60200260200101819052505f604051602001610c0d9190613846565b60405160208183030381529060405281600281518110610c3057610c2f6132b8565b5b60200260200101819052507f885cb69240a935d632d79c317109709ecfa91a80626ff3989d68f67f5b1dd12d5f1c60601b60601c73ffffffffffffffffffffffffffffffffffffffff166389160467826040518263ffffffff1660e01b8152600401610c9c919061342f565b5f604051808303815f875af1158015610cb7573d5f803e3d5ffd5b505050506040513d5f823e3d601f19601f82011682018060405250810190610cdf91906134bd565b505f600367ffffffffffffffff811115610cfc57610cfb612806565b5b604051908082528060200260200182016040528015610d2f57816020015b6060815260200190600190039081610d1a5790505b5090506040518060600160405280602d8152602001613f1f602d9139815f81518110610d5e57610d5d6132b8565b5b602002602001018190525082604051602001610d7a919061376c565b60405160208183030381529060405281600181518110610d9d57610d9c6132b8565b5b60200260200101819052508a604051602001610db9919061376c565b60405160208183030381529060405281600281518110610ddc57610ddb6132b8565b5b60200260200101819052507f885cb69240a935d632d79c317109709ecfa91a80626ff3989d68f67f5b1dd12d5f1c60601b60601c73ffffffffffffffffffffffffffffffffffffffff166389160467826040518263ffffffff1660e01b8152600401610e48919061342f565b5f604051808303815f875af1158015610e63573d5f803e3d5ffd5b505050506040513d5f823e3d601f19601f82011682018060405250810190610e8b91906134bd565b505f600567ffffffffffffffff811115610ea857610ea7612806565b5b604051908082528060200260200182016040528015610edb57816020015b6060815260200190600190039081610ec65790505b5090505f600580549050111561116d576005805490506006610efd9190613285565b67ffffffffffffffff811115610f1657610f15612806565b5b604051908082528060200260200182016040528015610f4957816020015b6060815260200190600190039081610f345790505b5090506040518060400160405280600281526020017f2d6300000000000000000000000000000000000000000000000000000000000081525081600581518110610f9657610f956132b8565b5b6020026020010181905250610fa961269e565b5f5b60058054905081101561116a5760058181548110610fcc57610fcb6132b8565b5b905f5260205f2090600202016040518060400160405290815f82018054610ff290612ed6565b80601f016020809104026020016040519081016040528092919081815260200182805461101e90612ed6565b80156110695780601f1061104057610100808354040283529160200191611069565b820191905f5260205f20905b81548152906001019060200180831161104c57829003601f168201915b5050505050815260200160018201805461108290612ed6565b80601f01602080910402602001604051908101604052809291908181526020018280546110ae90612ed6565b80156110f95780601f106110d0576101008083540402835291602001916110f9565b820191905f5260205f20905b8154815290600101906020018083116110dc57829003601f168201915b5050505050815250509150815f0151826020015160405160200161111e929190613891565b6040516020818303038152906040528382600661113b9190613285565b8151811061114c5761114b6132b8565b5b60200260200101819052508080611162906132e5565b915050610fab565b50505b6040518060400160405280600581526020017f6875666663000000000000000000000000000000000000000000000000000000815250815f815181106111b6576111b56132b8565b5b6020026020010181905250836040516020016111d2919061376c565b604051602081830303815290604052816001815181106111f5576111f46132b8565b5b60200260200101819052506040518060400160405280600281526020017f2d620000000000000000000000000000000000000000000000000000000000008152508160028151811061124a576112496132b8565b5b60200260200101819052506040518060400160405280600281526020017f2d650000000000000000000000000000000000000000000000000000000000008152508160038151811061129f5761129e6132b8565b5b60200260200101819052506112b261201f565b816004815181106112c6576112c56132b8565b5b60200260200101819052507f885cb69240a935d632d79c317109709ecfa91a80626ff3989d68f67f5b1dd12d5f1c60601b60601c73ffffffffffffffffffffffffffffffffffffffff166389160467826040518263ffffffff1660e01b8152600401611332919061342f565b5f604051808303815f875af115801561134d573d5f803e3d5ffd5b505050506040513d5f823e3d601f19601f8201168201806040525081019061137591906134bd565b9a505f600267ffffffffffffffff81111561139357611392612806565b5b6040519080825280602002602001820160405280156113c657816020015b60608152602001906001900390816113b15790505b5090506040518060400160405280600281526020017f726d000000000000000000000000000000000000000000000000000000000000815250815f81518110611412576114116132b8565b5b60200260200101819052508460405160200161142e919061376c565b60405160208183030381529060405281600181518110611451576114506132b8565b5b60200260200101819052507f885cb69240a935d632d79c317109709ecfa91a80626ff3989d68f67f5b1dd12d5f1c60601b60601c73ffffffffffffffffffffffffffffffffffffffff1663ca669fa760035f9054906101000a900473ffffffffffffffffffffffffffffffffffffffff166040518263ffffffff1660e01b81526004016114de9190612d7b565b5f604051808303815f87803b1580156114f5575f80fd5b505af1158015611507573d5f803e3d5ffd5b505050507f885cb69240a935d632d79c317109709ecfa91a80626ff3989d68f67f5b1dd12d5f1c60601b60601c73ffffffffffffffffffffffffffffffffffffffff166389160467826040518263ffffffff1660e01b815260040161156c919061342f565b5f604051808303815f875af1158015611587573d5f803e3d5ffd5b505050506040513d5f823e3d601f19601f820116820180604052508101906115af91906134bd565b505050505050505050505050919050565b5f815f90816115cf9190613189565b50309050919050565b5f80546115e490612ed6565b80601f016020809104026020016040519081016040528092919081815260200182805461161090612ed6565b801561165b5780601f106116325761010080835404028352916020019161165b565b820191905f5260205f20905b81548152906001019060200180831161163e57829003601f168201915b505050505081565b5f81600190816116739190613909565b50309050919050565b60605f6040518060400160405280601081526020017f303132333435363738396162636465660000000000000000000000000000000081525090505f600284516116c691906139d8565b60026116d29190613285565b67ffffffffffffffff8111156116eb576116ea612806565b5b6040519080825280601f01601f19166020018201604052801561171d5781602001600182028036833780820191505090505b5090507f3000000000000000000000000000000000000000000000000000000000000000815f81518110611754576117536132b8565b5b60200101907effffffffffffffffffffffffffffffffffffffffffffffffffffffffffffff191690815f1a9053507f7800000000000000000000000000000000000000000000000000000000000000816001815181106117b7576117b66132b8565b5b60200101907effffffffffffffffffffffffffffffffffffffffffffffffffffffffffffff191690815f1a9053505f5b845181101561196357826004868381518110611806576118056132b8565b5b602001015160f81c60f81b7effffffffffffffffffffffffffffffffffffffffffffffffffffffffffffff1916901c60f81c60ff168151811061184c5761184b6132b8565b5b602001015160f81c60f81b8260028361186591906139d8565b60026118719190613285565b81518110611882576118816132b8565b5b60200101907effffffffffffffffffffffffffffffffffffffffffffffffffffffffffffff191690815f1a90535082600f60f81b8683815181106118c9576118c86132b8565b5b602001015160f81c60f81b1660f81c60ff16815181106118ec576118eb6132b8565b5b602001015160f81c60f81b8260028361190591906139d8565b60036119119190613285565b81518110611922576119216132b8565b5b60200101907effffffffffffffffffffffffffffffffffffffffffffffffffffffffffffff191690815f1a905350808061195b906132e5565b9150506117e7565b508092505050919050565b7f885cb69240a935d632d79c317109709ecfa91a80626ff3989d68f67f5b1dd12d5f1c60601b60601c81565b60025481565b600180546119ad90612ed6565b80601f01602080910402602001604051908101604052809291908181526020018280546119d990612ed6565b8015611a245780601f106119fb57610100808354040283529160200191611a24565b820191905f5260205f20905b815481529060010190602001808311611a0757829003601f168201915b505050505081565b60048054611a3990612ed6565b80601f0160208091040260200160405190810160405280929190818152602001828054611a6590612ed6565b8015611ab05780601f10611a8757610100808354040283529160200191611ab0565b820191905f5260205f20905b815481529060010190602001808311611a9357829003601f168201915b505050505081565b5f60056040518060400160405280858152602001611af485604051602001611ae09190613a39565b60405160208183030381529060405261167c565b815250908060018154018082558091505060019003905f5260205f2090600202015f909190919091505f820151815f019081611b309190613189565b506020820151816001019081611b469190613189565b50505030905092915050565b5f60056040518060400160405280858152602001611b8e85604051602001611b7a9190613a98565b60405160208183030381529060405261167c565b815250908060018154018082558091505060019003905f5260205f2090600202015f909190919091505f820151815f019081611bca9190613189565b506020820151816001019081611be09190613189565b50505030905092915050565b5f81600281905550309050919050565b5f6005604051806040016040528085815260200184815250908060018154018082558091505060019003905f5260205f2090600202015f909190919091505f820151815f019081611c4d9190613189565b506020820151816001019081611c639190613189565b50505030905092915050565b5f8160035f6101000a81548173ffffffffffffffffffffffffffffffffffffffff021916908373ffffffffffffffffffffffffffffffffffffffff160217905550309050919050565b5f600167ffffffffffffffff811115611cd457611cd3612806565b5b604051908082528060200260200182016040528015611d0757816020015b6060815260200190600190039081611cf25790505b5090506040518060600160405280602a8152602001613ecc602a9139815f81518110611d3657611d356132b8565b5b60200260200101819052505f7f885cb69240a935d632d79c317109709ecfa91a80626ff3989d68f67f5b1dd12d5f1c60601b60601c73ffffffffffffffffffffffffffffffffffffffff166389160467836040518263ffffffff1660e01b8152600401611da3919061342f565b5f604051808303815f875af1158015611dbe573d5f803e3d5ffd5b505050506040513d5f823e3d601f19601f82011682018060405250810190611de691906134bd565b90505f815f81518110611dfc57611dfb6132b8565b5b602001015160f81c60f81b7effffffffffffffffffffffffffffffffffffffffffffffffffffffffffffff191690505f7f010000000000000000000000000000000000000000000000000000000000000077ffffffffffffffffffffffffffffffffffffffffffffffff19168277ffffffffffffffffffffffffffffffffffffffffffffffff191614905080611ec7576040517f08c379a0000000000000000000000000000000000000000000000000000000008152600401611ebe90613b48565b60405180910390fd5b50505050565b5f80611ed883610750565b90505f600360149054906101000a900460ff1615611f74577f885cb69240a935d632d79c317109709ecfa91a80626ff3989d68f67f5b1dd12d5f1c60601b60601c73ffffffffffffffffffffffffffffffffffffffff1663afc980406040518163ffffffff1660e01b81526004015f604051808303815f87803b158015611f5d575f80fd5b505af1158015611f6f573d5f803e3d5ffd5b505050505b60025482516020840182f09150505f73ffffffffffffffffffffffffffffffffffffffff168173ffffffffffffffffffffffffffffffffffffffff1603611ff0576040517f08c379a0000000000000000000000000000000000000000000000000000000008152600401611fe790613bd6565b60405180910390fd5b8092505050919050565b60035f9054906101000a900473ffffffffffffffffffffffffffffffffffffffff1681565b60605f60046040516020016120349190613bf4565b60405160208183030381529060405261204c90613527565b90505f801b8103612095576040518060400160405280600881526020017f7368616e67686169000000000000000000000000000000000000000000000000815250915050612122565b600480546120a290612ed6565b80601f01602080910402602001604051908101604052809291908181526020018280546120ce90612ed6565b80156121195780601f106120f057610100808354040283529160200191612119565b820191905f5260205f20905b8154815290600101906020018083116120fc57829003601f168201915b50505050509150505b90565b5f81600360146101000a81548160ff021916908315150217905550309050919050565b5f60056040518060400160405280858152602001612184856040516020016121709190613c2a565b60405160208183030381529060405261167c565b815250908060018154018082558091505060019003905f5260205f2090600202015f909190919091505f820151815f0190816121c09190613189565b5060208201518160010190816121d69190613189565b50505030905092915050565b600360149054906101000a900460ff1681565b6121fd6126b8565b5f60208301905060405180604001604052808451815260200182815250915050919050565b5f80825f0151612242855f01518660200151865f015187602001516123f6565b61224c9190613285565b90505b835f015184602001516122629190613285565b81116122bb578180612273906132e5565b925050825f01516122aa85602001518361228d9190613647565b865f015161229b9190613647565b83865f015187602001516123f6565b6122b49190613285565b905061224f565b5092915050565b6122ca6126b8565b6122d5838383612535565b5092915050565b60605f825f015167ffffffffffffffff8111156122fc576122fb612806565b5b6040519080825280601f01601f19166020018201604052801561232e5781602001600182028036833780820191505090505b5090505f60208201905061234a818560200151865f01516125f4565b8192505050919050565b6060805f5b602060ff168110156123ec57816061601a86846020811061237d5761237c6132b8565b5b1a60f81b60f81c61238e9190613c7d565b6123989190613cad565b6040516020016123a89190613d15565b6040516020818303038152906040526040516020016123c8929190613d2f565b604051602081830303815290604052915080806123e4906132e5565b915050612359565b5080915050919050565b5f808490505f86851161251c57602085116124c2575f8086111561244b5760018660206124239190613647565b600861242f91906139d8565b600261243b9190613e81565b6124459190613647565b195f1b90505b5f8186511690505f878a8a6124609190613285565b61246a9190613647565b90505f8386511690505b8281146124b45781861061249b578a8a61248e9190613285565b965050505050505061252d565b85806124a6906132e5565b965050838651169050612474565b85965050505050505061252d565b5f85852090505f91505b85886124d89190613647565b821161251a575f86842090508082036124f7578394505050505061252d565b6001846125049190613285565b9350508180612512906132e5565b9250506124cc565b505b86866125289190613285565b925050505b949350505050565b61253d6126b8565b5f612558855f01518660200151865f015187602001516123f6565b905084602001518360200181815250508460200151816125789190613647565b835f018181525050845f015185602001516125939190613285565b81036125a7575f855f0181815250506125e9565b835f0151835f01516125b99190613285565b855f018181516125c99190613647565b91508181525050835f0151816125df9190613285565b8560200181815250505b829150509392505050565b5b60208110612633578151835260208361260e9190613285565b925060208261261d9190613285565b915060208161262c9190613647565b90506125f5565b5f7fffffffffffffffffffffffffffffffffffffffffffffffffffffffffffffffff90505f82111561268857600182602061266e9190613647565b61010061267b9190613e81565b6126859190613647565b90505b8019835116818551168181178652505050505050565b604051806040016040528060608152602001606081525090565b60405180604001604052805f81526020015f81525090565b5f604051905090565b5f80fd5b5f80fd5b5f819050919050565b6126f3816126e1565b81146126fd575f80fd5b50565b5f8135905061270e816126ea565b92915050565b5f60208284031215612729576127286126d9565b5b5f61273684828501612700565b91505092915050565b5f81519050919050565b5f82825260208201905092915050565b5f5b8381101561277657808201518184015260208101905061275b565b5f8484015250505050565b5f601f19601f8301169050919050565b5f61279b8261273f565b6127a58185612749565b93506127b5818560208601612759565b6127be81612781565b840191505092915050565b5f6040820190508181035f8301526127e18185612791565b905081810360208301526127f58184612791565b90509392505050565b5f80fd5b5f80fd5b7f4e487b71000000000000000000000000000000000000000000000000000000005f52604160045260245ffd5b61283c82612781565b810181811067ffffffffffffffff8211171561285b5761285a612806565b5b80604052505050565b5f61286d6126d0565b90506128798282612833565b919050565b5f67ffffffffffffffff82111561289857612897612806565b5b6128a182612781565b9050602081019050919050565b828183375f83830152505050565b5f6128ce6128c98461287e565b612864565b9050828152602081018484840111156128ea576128e9612802565b5b6128f58482856128ae565b509392505050565b5f82601f830112612911576129106127fe565b5b81356129218482602086016128bc565b91505092915050565b5f6020828403121561293f5761293e6126d9565b5b5f82013567ffffffffffffffff81111561295c5761295b6126dd565b5b612968848285016128fd565b91505092915050565b5f81519050919050565b5f82825260208201905092915050565b5f61299582612971565b61299f818561297b565b93506129af818560208601612759565b6129b881612781565b840191505092915050565b5f6020820190508181035f8301526129db818461298b565b905092915050565b5f73ffffffffffffffffffffffffffffffffffffffff82169050919050565b5f819050919050565b5f612a25612a20612a1b846129e3565b612a02565b6129e3565b9050919050565b5f612a3682612a0b565b9050919050565b5f612a4782612a2c565b9050919050565b612a5781612a3d565b82525050565b5f602082019050612a705f830184612a4e565b92915050565b5f6020820190508181035f830152612a8e8184612791565b905092915050565b5f67ffffffffffffffff821115612ab057612aaf612806565b5b612ab982612781565b9050602081019050919050565b5f612ad8612ad384612a96565b612864565b905082815260208101848484011115612af457612af3612802565b5b612aff8482856128ae565b509392505050565b5f82601f830112612b1b57612b1a6127fe565b5b8135612b2b848260208601612ac6565b91505092915050565b5f60208284031215612b4957612b486126d9565b5b5f82013567ffffffffffffffff811115612b6657612b656126dd565b5b612b7284828501612b07565b91505092915050565b5f612b8582612a2c565b9050919050565b612b9581612b7b565b82525050565b5f602082019050612bae5f830184612b8c565b92915050565b612bbd816126e1565b82525050565b5f602082019050612bd65f830184612bb4565b92915050565b5f8060408385031215612bf257612bf16126d9565b5b5f83013567ffffffffffffffff811115612c0f57612c0e6126dd565b5b612c1b858286016128fd565b9250506020612c2c85828601612700565b9150509250929050565b5f612c40826129e3565b9050919050565b612c5081612c36565b8114612c5a575f80fd5b50565b5f81359050612c6b81612c47565b92915050565b5f8060408385031215612c8757612c866126d9565b5b5f83013567ffffffffffffffff811115612ca457612ca36126dd565b5b612cb0858286016128fd565b9250506020612cc185828601612c5d565b9150509250929050565b5f8060408385031215612ce157612ce06126d9565b5b5f83013567ffffffffffffffff811115612cfe57612cfd6126dd565b5b612d0a858286016128fd565b925050602083013567ffffffffffffffff811115612d2b57612d2a6126dd565b5b612d37858286016128fd565b9150509250929050565b5f60208284031215612d5657612d556126d9565b5b5f612d6384828501612c5d565b91505092915050565b612d7581612c36565b82525050565b5f602082019050612d8e5f830184612d6c565b92915050565b5f8115159050919050565b612da881612d94565b8114612db2575f80fd5b50565b5f81359050612dc381612d9f565b92915050565b5f60208284031215612dde57612ddd6126d9565b5b5f612deb84828501612db5565b91505092915050565b5f819050919050565b612e0681612df4565b8114612e10575f80fd5b50565b5f81359050612e2181612dfd565b92915050565b5f8060408385031215612e3d57612e3c6126d9565b5b5f83013567ffffffffffffffff811115612e5a57612e596126dd565b5b612e66858286016128fd565b9250506020612e7785828601612e13565b9150509250929050565b612e8a81612d94565b82525050565b5f602082019050612ea35f830184612e81565b92915050565b7f4e487b71000000000000000000000000000000000000000000000000000000005f52602260045260245ffd5b5f6002820490506001821680612eed57607f821691505b602082108103612f0057612eff612ea9565b5b50919050565b5f81905092915050565b5f612f1a82612971565b612f248185612f06565b9350612f34818560208601612759565b80840191505092915050565b5f819050815f5260205f209050919050565b5f8154612f5e81612ed6565b612f688186612f06565b9450600182165f8114612f825760018114612f9757612fc9565b60ff1983168652811515820286019350612fc9565b612fa085612f40565b5f5b83811015612fc157815481890152600182019150602081019050612fa2565b838801955050505b50505092915050565b5f612fdd8285612f10565b9150612fe98284612f52565b91508190509392505050565b5f819050815f5260205f209050919050565b5f6020601f8301049050919050565b5f82821b905092915050565b5f600883026130517fffffffffffffffffffffffffffffffffffffffffffffffffffffffffffffffff82613016565b61305b8683613016565b95508019841693508086168417925050509392505050565b5f61308d613088613083846126e1565b612a02565b6126e1565b9050919050565b5f819050919050565b6130a683613073565b6130ba6130b282613094565b848454613022565b825550505050565b5f90565b6130ce6130c2565b6130d981848461309d565b505050565b5b818110156130fc576130f15f826130c6565b6001810190506130df565b5050565b601f8211156131415761311281612ff5565b61311b84613007565b8101602085101561312a578190505b61313e61313685613007565b8301826130de565b50505b505050565b5f82821c905092915050565b5f6131615f1984600802613146565b1980831691505092915050565b5f6131798383613152565b9150826002028217905092915050565b6131928261273f565b67ffffffffffffffff8111156131ab576131aa612806565b5b6131b58254612ed6565b6131c0828285613100565b5f60209050601f8311600181146131f1575f84156131df578287015190505b6131e9858261316e565b865550613250565b601f1984166131ff86612ff5565b5f5b8281101561322657848901518255600182019150602085019450602081019050613201565b86831015613243578489015161323f601f891682613152565b8355505b6001600288020188555050505b505050505050565b7f4e487b71000000000000000000000000000000000000000000000000000000005f52601160045260245ffd5b5f61328f826126e1565b915061329a836126e1565b92508282019050808211156132b2576132b1613258565b5b92915050565b7f4e487b71000000000000000000000000000000000000000000000000000000005f52603260045260245ffd5b5f6132ef826126e1565b91507fffffffffffffffffffffffffffffffffffffffffffffffffffffffffffffffff820361332157613320613258565b5b600182019050919050565b5f81519050919050565b5f82825260208201905092915050565b5f819050602082019050919050565b5f82825260208201905092915050565b5f61336f8261273f565b6133798185613355565b9350613389818560208601612759565b61339281612781565b840191505092915050565b5f6133a88383613365565b905092915050565b5f602082019050919050565b5f6133c68261332c565b6133d08185613336565b9350836020820285016133e285613346565b805f5b8581101561341d57848403895281516133fe858261339d565b9450613409836133b0565b925060208a019950506001810190506133e5565b50829750879550505050505092915050565b5f6020820190508181035f83015261344781846133bc565b905092915050565b5f61346161345c84612a96565b612864565b90508281526020810184848401111561347d5761347c612802565b5b613488848285612759565b509392505050565b5f82601f8301126134a4576134a36127fe565b5b81516134b484826020860161344f565b91505092915050565b5f602082840312156134d2576134d16126d9565b5b5f82015167ffffffffffffffff8111156134ef576134ee6126dd565b5b6134fb84828501613490565b91505092915050565b5f819050602082019050919050565b5f61351e8251612df4565b80915050919050565b5f61353182612971565b8261353b84613504565b905061354681613513565b92506020821015613586576135817fffffffffffffffffffffffffffffffffffffffffffffffffffffffffffffffff83602003600802613016565b831692505b5050919050565b61359681612df4565b82525050565b5f6020820190506135af5f83018461358d565b92915050565b7f5f5f54454d505f5f000000000000000000000000000000000000000000000000815250565b5f81905092915050565b5f6135ef8261273f565b6135f981856135db565b9350613609818560208601612759565b80840191505092915050565b5f61361f826135b5565b60088201915061362f82856135e5565b915061363b82846135e5565b91508190509392505050565b5f613651826126e1565b915061365c836126e1565b925082820390508181111561367457613673613258565b5b92915050565b7f2f00000000000000000000000000000000000000000000000000000000000000815250565b5f6136ab82856135e5565b91506136b68261367a565b6001820191506136c682846135e5565b91508190509392505050565b5f6136dd82866135e5565b91506136e88261367a565b6001820191506136f7826135b5565b60088201915061370782856135e5565b915061371382846135e5565b9150819050949350505050565b7f7372632f00000000000000000000000000000000000000000000000000000000815250565b7f2e68756666000000000000000000000000000000000000000000000000000000815250565b5f61377682613720565b60048201915061378682846135e5565b915061379182613746565b60058201915081905092915050565b5f81546137ac81612ed6565b6137b681866135db565b9450600182165f81146137d057600181146137e557613817565b60ff1983168652811515820286019350613817565b6137ee85612ff5565b5f5b8381101561380f578154818901526001820191506020810190506137f0565b838801955050505b50505092915050565b7f0a00000000000000000000000000000000000000000000000000000000000000815250565b5f61385182846137a0565b915061385c82613820565b60018201915081905092915050565b7f3d00000000000000000000000000000000000000000000000000000000000000815250565b5f61389c82856135e5565b91506138a78261386b565b6001820191506138b782846135e5565b91508190509392505050565b601f821115613904576138d581612f40565b6138de84613007565b810160208510156138ed578190505b6139016138f985613007565b8301826130de565b50505b505050565b61391282612971565b67ffffffffffffffff81111561392b5761392a612806565b5b6139358254612ed6565b6139408282856138c3565b5f60209050601f831160018114613971575f841561395f578287015190505b613969858261316e565b8655506139d0565b601f19841661397f86612f40565b5f5b828110156139a657848901518255600182019150602085019450602081019050613981565b868310156139c357848901516139bf601f891682613152565b8355505b6001600288020188555050505b505050505050565b5f6139e2826126e1565b91506139ed836126e1565b92508282026139fb816126e1565b91508282048414831517613a1257613a11613258565b5b5092915050565b5f819050919050565b613a33613a2e826126e1565b613a19565b82525050565b5f613a448284613a22565b60208201915081905092915050565b5f8160601b9050919050565b5f613a6982613a53565b9050919050565b5f613a7a82613a5f565b9050919050565b613a92613a8d82612c36565b613a70565b82525050565b5f613aa38284613a81565b60148201915081905092915050565b7f496e76616c69642068756666632062696e6172792e2052756e20606375726c205f8201527f2d4c206765742e687566662e7368207c20626173686020616e6420606875666660208201527f75706020746f206669782e000000000000000000000000000000000000000000604082015250565b5f613b32604b83612749565b9150613b3d82613ab2565b606082019050919050565b5f6020820190508181035f830152613b5f81613b26565b9050919050565b7f487566664465706c6f79657220636f756c64206e6f74206465706c6f7920636f5f8201527f6e74726163740000000000000000000000000000000000000000000000000000602082015250565b5f613bc0602683612749565b9150613bcb82613b66565b604082019050919050565b5f6020820190508181035f830152613bed81613bb4565b9050919050565b5f613bff82846137a0565b915081905092915050565b5f819050919050565b613c24613c1f82612df4565b613c0a565b82525050565b5f613c358284613c13565b60208201915081905092915050565b5f60ff82169050919050565b7f4e487b71000000000000000000000000000000000000000000000000000000005f52601260045260245ffd5b5f613c8782613c44565b9150613c9283613c44565b925082613ca257613ca1613c50565b5b828206905092915050565b5f613cb782613c44565b9150613cc283613c44565b9250828201905060ff811115613cdb57613cda613258565b5b92915050565b5f8160f81b9050919050565b5f613cf782613ce1565b9050919050565b613d0f613d0a82613c44565b613ced565b82525050565b5f613d208284613cfe565b60018201915081905092915050565b5f613d3a82856135e5565b9150613d4682846135e5565b91508190509392505050565b5f8160011c9050919050565b5f808291508390505b6001851115613da757808604811115613d8357613d82613258565b5b6001851615613d925780820291505b8081029050613da085613d52565b9450613d67565b94509492505050565b5f82613dbf5760019050613e7a565b81613dcc575f9050613e7a565b8160018114613de25760028114613dec57613e1b565b6001915050613e7a565b60ff841115613dfe57613dfd613258565b5b8360020a915084821115613e1557613e14613258565b5b50613e7a565b5060208310610133831016604e8410600b8410161715613e505782820a905083811115613e4b57613e4a613258565b5b613e7a565b613e5d8484846001613d5e565b92509050818404811115613e7457613e73613258565b5b81810290505b9392505050565b5f613e8b826126e1565b9150613e96836126e1565b9250613ec37fffffffffffffffffffffffffffffffffffffffffffffffffffffffffffffffff8484613db0565b90509291505056fe2e2f6c69622f666f756e6472792d687566662f736372697074732f62696e6172795f636865636b2e73682e2f6c69622f666f756e6472792d687566662f736372697074732f66696c655f7772697465722e73682e2f6c69622f666f756e6472792d687566662f736372697074732f726561645f616e645f617070656e642e73682e2f6c69622f666f756e6472792d687566662f736372697074732f72616e645f62797465732e7368a2646970667358221220d5509cc88eb02c2f1c84c1d3b8b88e05aa86344edce37fd66392a355553df00d64736f6c63430008140033","linkReferences":{}},"methodIdentifiers":{"args()":"4e9b75b6","binary_check()":"c5effd02","bytesToString(bytes)":"39614e4f","code()":"24c12bf6","const_overrides(uint256)":"0c7d1681","creation_code(string)":"220481ef","creation_code_with_args(string)":"0cc76616","deploy(string)":"c7602316","deployer()":"d5f39488","evm_version()":"68f192f2","get_evm_version()":"dd1ec824","set_broadcast(bool)":"df9f3dee","should_broadcast()":"e9e68e1d","value()":"3fa4f245","vm()":"3a768463","with_addr_constant(string,address)":"6fcef9d5","with_args(bytes)":"28764d14","with_bytes32_constant(string,bytes32)":"e5df3076","with_code(string)":"2232d908","with_constant(string,string)":"8093a1b9","with_deployer(address)":"92bb10d7","with_evm_version(string)":"1a8f1a1c","with_uint_constant(string,uint256)":"6b07af10","with_value(uint256)":"7dc2225f"},"id":20}