{"abi":[{"type":"function","name":"MAX_SUPPLY","inputs":[],"outputs":[{"name":"","type":"uint256","internalType":"uint256"}],"stateMutability":"view"},{"type":"function","name":"approve","inputs":[{"name":"approved","type":"address","internalType":"address"},{"name":"tokenId","type":"uint256","internalType":"uint256"}],"outputs":[],"stateMutability":"payable"},{"type":"function","name":"balanceOf","inputs":[{"name":"owner","type":"address","internalType":"address"}],"outputs":[{"name":"","type":"uint256","internalType":"uint256"}],"stateMutability":"view"},{"type":"function","name":"getApproved","inputs":[{"name":"tokenId","type":"uint256","internalType":"uint256"}],"outputs":[{"name":"","type":"address","internalType":"address"}],"stateMutability":"view"},{"type":"function","name":"isApprovedForAll","inputs":[{"name":"owner","type":"address","internalType":"address"},{"name":"operator","type":"address","internalType":"address"}],"outputs":[{"name":"","type":"bool","internalType":"bool"}],"stateMutability":"view"},{"type":"function","name":"mintNft","inputs":[],"outputs":[{"name":"tokenId","type":"uint256","internalType":"uint256"}],"stateMutability":"nonpayable"},{"type":"function","name":"name","inputs":[],"outputs":[{"name":"","type":"string","internalType":"string"}],"stateMutability":"pure"},{"type":"function","name":"ownerOf","inputs":[{"name":"tokenId","type":"uint256","internalType":"uint256"}],"outputs":[{"name":"","type":"address","internalType":"address"}],"stateMutability":"view"},{"type":"function","name":"safeTransferFrom","inputs":[{"name":"from","type":"address","internalType":"address"},{"name":"to","type":"address","internalType":"address"},{"name":"tokenId","type":"uint256","internalType":"uint256"}],"outputs":[],"stateMutability":"payable"},{"type":"function","name":"safeTransferFrom","inputs":[{"name":"from","type":"address","internalType":"address"},{"name":"to","type":"address","internalType":"address"},{"name":"tokenId","type":"uint256","internalType":"uint256"},{"name":"data","type":"bytes","internalType":"bytes"}],"outputs":[],"stateMutability":"payable"},{"type":"function","name":"setApprovalForAll","inputs":[{"name":"operator","type":"address","internalType":"address"},{"name":"approved","type":"bool","internalType":"bool"}],"outputs":[],"stateMutability":"nonpayable"},{"type":"function","name":"supportsInterface","inputs":[{"name":"interfaceId","type":"bytes4","internalType":"bytes4"}],"outputs":[{"name":"","type":"bool","internalType":"bool"}],"stateMutability":"pure"},{"type":"function","name":"symbol","inputs":[],"outputs":[{"name":"","type":"string","internalType":"string"}],"stateMutability":"pure"},{"type":"function","name":"tokenURI","inputs":[{"name":"tokenId","type":"uint256","internalType":"uint256"}],"outputs":[{"name":"","type":"string","internalType":"string"}],"stateMutability":"view"},{"type":"function","name":"totalMinted","inputs":[],"outputs":[{"name":"","type":"uint256","internalType":"uint256"}],"stateMutability":"view"},{"type":"function","name":"transferFrom","inputs":[{"name":"from","type":"address","internalType":"address"},{"name":"to","type":"address","internalType":"address"},{"name":"tokenId","type":"uint256","internalType":"uint256"}],"outputs":[],"stateMutability":"payable"},{"type":"event","name":"Approval","inputs":[{"name":"_owner","type":"address","indexed":true,"internalType":"address"},{"name":"_approved","type":"address","indexed":true,"internalType":"address"},{"name":"_tokenId","type":"uint256","indexed":true,"internalType":"uint256"}],"anonymous":false},{"type":"event","name":"ApprovalForAll","inputs":[{"name":"_owner","type":"address","indexed":true,"internalType":"address"},{"name":"_operator","type":"address","indexed":true,"internalType":"address"},{"name":"_approved","type":"bool","indexed":false,"internalType":"bool"}],"anonymous":false},{"type":"event","name":"Transfer","inputs":[{"name":"_from","type":"address","indexed":true,"internalType":"address"},{"name":"_to","type":"address","indexed":true,"internalType":"address"},{"name":"_tokenId","type":"uint256","indexed":true,"internalType":"uint256"}],"anonymous":false},{"type":"error","name":"BasicNFT__InvalidOwner","inputs":[]},{"type":"error","name":"BasicNFT__MaxSupplyReached","inputs":[]},{"type":"error","name":"BasicNFT__NotAuthorized","inputs":[]},{"type":"error","name":"BasicNFT__TokenDoesNotExist","inputs":[]},{"type":"error","name":"BasicNFT__UnsafeRecipient","inputs":[]},{"type":"error","name":"BasicNFT__ZeroAddress","inputs":[]}],"bytecode":{"object":"0x60806040526040518060600160405280604051806080016040528060498152602001611d2e604991398152602001604051806080016040528060498152602001611ce5604991398152602001604051806080016040528060498152602001611d77604991398152505f906003610076929190610088565b50348015610082575f5ffd5b5061045b565b82600381019282156100c3579160200282015b828111156100c25782518290816100b2919061038c565b509160200191906001019061009b565b5b5090506100d091906100d4565b5090565b5b808211156100f3575f81816100ea91906100f7565b506001016100d5565b5090565b508054610103906101b3565b5f825580601f106101145750610131565b601f0160209004905f5260205f20908101906101309190610134565b5b50565b5b8082111561014b575f815f905550600101610135565b5090565b5f81519050919050565b7f4e487b71000000000000000000000000000000000000000000000000000000005f52604160045260245ffd5b7f4e487b71000000000000000000000000000000000000000000000000000000005f52602260045260245ffd5b5f60028204905060018216806101ca57607f821691505b6020821081036101dd576101dc610186565b5b50919050565b5f819050815f5260205f209050919050565b5f6020601f8301049050919050565b5f82821b905092915050565b5f6008830261023f7fffffffffffffffffffffffffffffffffffffffffffffffffffffffffffffffff82610204565b6102498683610204565b95508019841693508086168417925050509392505050565b5f819050919050565b5f819050919050565b5f61028d61028861028384610261565b61026a565b610261565b9050919050565b5f819050919050565b6102a683610273565b6102ba6102b282610294565b848454610210565b825550505050565b5f5f905090565b6102d16102c2565b6102dc81848461029d565b505050565b5b818110156102ff576102f45f826102c9565b6001810190506102e2565b5050565b601f82111561034457610315816101e3565b61031e846101f5565b8101602085101561032d578190505b610341610339856101f5565b8301826102e1565b50505b505050565b5f82821c905092915050565b5f6103645f1984600802610349565b1980831691505092915050565b5f61037c8383610355565b9150826002028217905092915050565b6103958261014f565b67ffffffffffffffff8111156103ae576103ad610159565b5b6103b882546101b3565b6103c3828285610303565b5f60209050601f8311600181146103f4575f84156103e2578287015190505b6103ec8582610371565b865550610453565b601f198416610402866101e3565b5f5b8281101561042957848901518255600182019150602085019450602081019050610404565b868310156104465784890151610442601f891682610355565b8355505b6001600288020188555050505b505050505050565b61187d806104685f395ff3fe6080604052600436106100f2575f3560e01c806370a0823111610089578063b88d4fde11610058578063b88d4fde1461030a578063c2229fea14610326578063c87b56dd14610350578063e985e9c51461038c576100f2565b806370a082311461025257806395d89b411461028e578063a22cb465146102b8578063a2309ff8146102e0576100f2565b806323b872dd116100c557806323b872dd146101b457806332cb6b0c146101d057806342842e0e146101fa5780636352211e14610216576100f2565b806301ffc9a7146100f657806306fdde0314610132578063081812fc1461015c578063095ea7b314610198575b5f5ffd5b348015610101575f5ffd5b5061011c600480360381019061011791906111e1565b6103c8565b6040516101299190611226565b60405180910390f35b34801561013d575f5ffd5b50610146610501565b60405161015391906112af565b60405180910390f35b348015610167575f5ffd5b50610182600480360381019061017d9190611302565b61053e565b60405161018f919061136c565b60405180910390f35b6101b260048036038101906101ad91906113af565b610581565b005b6101ce60048036038101906101c991906113ed565b610731565b005b3480156101db575f5ffd5b506101e46109c4565b6040516101f1919061144c565b60405180910390f35b610214600480360381019061020f91906113ed565b6109c9565b005b348015610221575f5ffd5b5061023c60048036038101906102379190611302565b6109e8565b604051610249919061136c565b60405180910390f35b34801561025d575f5ffd5b5061027860048036038101906102739190611465565b610a8b565b604051610285919061144c565b60405180910390f35b348015610299575f5ffd5b506102a2610b36565b6040516102af91906112af565b60405180910390f35b3480156102c3575f5ffd5b506102de60048036038101906102d991906114ba565b610b73565b005b3480156102eb575f5ffd5b506102f4610c6b565b604051610301919061144c565b60405180910390f35b610324600480360381019061031f9190611624565b610c74565b005b348015610331575f5ffd5b5061033a610cc7565b604051610347919061144c565b60405180910390f35b34801561035b575f5ffd5b5061037660048036038101906103719190611302565b610e12565b60405161038391906112af565b60405180910390f35b348015610397575f5ffd5b506103b260048036038101906103ad91906116a4565b610ec0565b6040516103bf9190611226565b60405180910390f35b5f7f01ffc9a7000000000000000000000000000000000000000000000000000000007bffffffffffffffffffffffffffffffffffffffffffffffffffffffff1916827bffffffffffffffffffffffffffffffffffffffffffffffffffffffff1916148061049257507f80ac58cd000000000000000000000000000000000000000000000000000000007bffffffffffffffffffffffffffffffffffffffffffffffffffffffff1916827bffffffffffffffffffffffffffffffffffffffffffffffffffffffff1916145b806104fa57507f5b5e139f000000000000000000000000000000000000000000000000000000007bffffffffffffffffffffffffffffffffffffffffffffffffffffffff1916827bffffffffffffffffffffffffffffffffffffffffffffffffffffffff1916145b9050919050565b60606040518060400160405280601681526020017f53696d706c65204950465320436f6c6c656374696f6e00000000000000000000815250905090565b5f610548826109e8565b5060065f8381526020019081526020015f205f9054906101000a900473ffffffffffffffffffffffffffffffffffffffff169050919050565b5f61058b826109e8565b90508073ffffffffffffffffffffffffffffffffffffffff163373ffffffffffffffffffffffffffffffffffffffff161415801561064b575060075f8273ffffffffffffffffffffffffffffffffffffffff1673ffffffffffffffffffffffffffffffffffffffff1681526020019081526020015f205f3373ffffffffffffffffffffffffffffffffffffffff1673ffffffffffffffffffffffffffffffffffffffff1681526020019081526020015f205f9054906101000a900460ff16155b15610682576040517fca58d51400000000000000000000000000000000000000000000000000000000815260040160405180910390fd5b8260065f8481526020019081526020015f205f6101000a81548173ffffffffffffffffffffffffffffffffffffffff021916908373ffffffffffffffffffffffffffffffffffffffff160217905550818373ffffffffffffffffffffffffffffffffffffffff168273ffffffffffffffffffffffffffffffffffffffff167f8c5be1e5ebec7d5bd14f71427d1e84f3dd0314c0f7b2291e5b200ac8c7c3b92560405160405180910390a4505050565b5f61073b826109e8565b90508373ffffffffffffffffffffffffffffffffffffffff168173ffffffffffffffffffffffffffffffffffffffff16146107a2576040517fca58d51400000000000000000000000000000000000000000000000000000000815260040160405180910390fd5b5f73ffffffffffffffffffffffffffffffffffffffff168373ffffffffffffffffffffffffffffffffffffffff1603610807576040517ffbe476b100000000000000000000000000000000000000000000000000000000815260040160405180910390fd5b610812338383610f4e565b610848576040517fca58d51400000000000000000000000000000000000000000000000000000000815260040160405180910390fd5b60065f8381526020019081526020015f205f6101000a81549073ffffffffffffffffffffffffffffffffffffffff021916905560055f8573ffffffffffffffffffffffffffffffffffffffff1673ffffffffffffffffffffffffffffffffffffffff1681526020019081526020015f205f81548092919060019003919050555060055f8473ffffffffffffffffffffffffffffffffffffffff1673ffffffffffffffffffffffffffffffffffffffff1681526020019081526020015f205f81548092919060010191905055508260045f8481526020019081526020015f205f6101000a81548173ffffffffffffffffffffffffffffffffffffffff021916908373ffffffffffffffffffffffffffffffffffffffff160217905550818373ffffffffffffffffffffffffffffffffffffffff168573ffffffffffffffffffffffffffffffffffffffff167fddf252ad1be2c89b69c2b068fc378daa952ba7f163c4a11628f55a4df523b3ef60405160405180910390a450505050565b600381565b6109e383838360405180602001604052805f815250610c74565b505050565b5f5f60045f8481526020019081526020015f205f9054906101000a900473ffffffffffffffffffffffffffffffffffffffff1690505f73ffffffffffffffffffffffffffffffffffffffff168173ffffffffffffffffffffffffffffffffffffffff1603610a82576040517f030e309300000000000000000000000000000000000000000000000000000000815260040160405180910390fd5b80915050919050565b5f5f73ffffffffffffffffffffffffffffffffffffffff168273ffffffffffffffffffffffffffffffffffffffff1603610af1576040517f0ccec6f400000000000000000000000000000000000000000000000000000000815260040160405180910390fd5b60055f8373ffffffffffffffffffffffffffffffffffffffff1673ffffffffffffffffffffffffffffffffffffffff1681526020019081526020015f20549050919050565b60606040518060400160405280600481526020017f5349504300000000000000000000000000000000000000000000000000000000815250905090565b8060075f3373ffffffffffffffffffffffffffffffffffffffff1673ffffffffffffffffffffffffffffffffffffffff1681526020019081526020015f205f8473ffffffffffffffffffffffffffffffffffffffff1673ffffffffffffffffffffffffffffffffffffffff1681526020019081526020015f205f6101000a81548160ff0219169083151502179055508173ffffffffffffffffffffffffffffffffffffffff163373ffffffffffffffffffffffffffffffffffffffff167f17307eab39ab6107e8899845ad3d59bd9653f200f220920489ca2b5937696c3183604051610c5f9190611226565b60405180910390a35050565b5f600354905090565b610c7f848484610731565b610c8b84848484611079565b610cc1576040517fe1bb4c7b00000000000000000000000000000000000000000000000000000000815260040160405180910390fd5b50505050565b5f6003805410610d03576040517f33868c3a00000000000000000000000000000000000000000000000000000000815260040160405180910390fd5b600354905060035f815480929190600101919050555060055f3373ffffffffffffffffffffffffffffffffffffffff1673ffffffffffffffffffffffffffffffffffffffff1681526020019081526020015f205f81548092919060010191905055503360045f8381526020019081526020015f205f6101000a81548173ffffffffffffffffffffffffffffffffffffffff021916908373ffffffffffffffffffffffffffffffffffffffff160217905550803373ffffffffffffffffffffffffffffffffffffffff165f73ffffffffffffffffffffffffffffffffffffffff167fddf252ad1be2c89b69c2b068fc378daa952ba7f163c4a11628f55a4df523b3ef60405160405180910390a490565b6060610e1d826109e8565b505f8260038110610e3157610e306116e2565b5b018054610e3d9061173c565b80601f0160208091040260200160405190810160405280929190818152602001828054610e699061173c565b8015610eb45780601f10610e8b57610100808354040283529160200191610eb4565b820191905f5260205f20905b815481529060010190602001808311610e9757829003601f168201915b50505050509050919050565b5f60075f8473ffffffffffffffffffffffffffffffffffffffff1673ffffffffffffffffffffffffffffffffffffffff1681526020019081526020015f205f8373ffffffffffffffffffffffffffffffffffffffff1673ffffffffffffffffffffffffffffffffffffffff1681526020019081526020015f205f9054906101000a900460ff16905092915050565b5f8173ffffffffffffffffffffffffffffffffffffffff168473ffffffffffffffffffffffffffffffffffffffff161480610fe457508373ffffffffffffffffffffffffffffffffffffffff1660065f8581526020019081526020015f205f9054906101000a900473ffffffffffffffffffffffffffffffffffffffff1673ffffffffffffffffffffffffffffffffffffffff16145b80611070575060075f8373ffffffffffffffffffffffffffffffffffffffff1673ffffffffffffffffffffffffffffffffffffffff1681526020019081526020015f205f8573ffffffffffffffffffffffffffffffffffffffff1673ffffffffffffffffffffffffffffffffffffffff1681526020019081526020015f205f9054906101000a900460ff165b90509392505050565b5f5f8473ffffffffffffffffffffffffffffffffffffffff163b036110a15760019050611173565b8373ffffffffffffffffffffffffffffffffffffffff1663150b7a02338786866040518563ffffffff1660e01b81526004016110e094939291906117be565b6020604051808303815f875af192505050801561111b57506040513d601f19601f82011682018060405250810190611118919061181c565b60015b611127575f9050611173565b63150b7a0260e01b7bffffffffffffffffffffffffffffffffffffffffffffffffffffffff1916817bffffffffffffffffffffffffffffffffffffffffffffffffffffffff1916149150505b949350505050565b5f604051905090565b5f5ffd5b5f5ffd5b5f7fffffffff0000000000000000000000000000000000000000000000000000000082169050919050565b6111c08161118c565b81146111ca575f5ffd5b50565b5f813590506111db816111b7565b92915050565b5f602082840312156111f6576111f5611184565b5b5f611203848285016111cd565b91505092915050565b5f8115159050919050565b6112208161120c565b82525050565b5f6020820190506112395f830184611217565b92915050565b5f81519050919050565b5f82825260208201905092915050565b8281835e5f83830152505050565b5f601f19601f8301169050919050565b5f6112818261123f565b61128b8185611249565b935061129b818560208601611259565b6112a481611267565b840191505092915050565b5f6020820190508181035f8301526112c78184611277565b905092915050565b5f819050919050565b6112e1816112cf565b81146112eb575f5ffd5b50565b5f813590506112fc816112d8565b92915050565b5f6020828403121561131757611316611184565b5b5f611324848285016112ee565b91505092915050565b5f73ffffffffffffffffffffffffffffffffffffffff82169050919050565b5f6113568261132d565b9050919050565b6113668161134c565b82525050565b5f60208201905061137f5f83018461135d565b92915050565b61138e8161134c565b8114611398575f5ffd5b50565b5f813590506113a981611385565b92915050565b5f5f604083850312156113c5576113c4611184565b5b5f6113d28582860161139b565b92505060206113e3858286016112ee565b9150509250929050565b5f5f5f6060848603121561140457611403611184565b5b5f6114118682870161139b565b93505060206114228682870161139b565b9250506040611433868287016112ee565b9150509250925092565b611446816112cf565b82525050565b5f60208201905061145f5f83018461143d565b92915050565b5f6020828403121561147a57611479611184565b5b5f6114878482850161139b565b91505092915050565b6114998161120c565b81146114a3575f5ffd5b50565b5f813590506114b481611490565b92915050565b5f5f604083850312156114d0576114cf611184565b5b5f6114dd8582860161139b565b92505060206114ee858286016114a6565b9150509250929050565b5f5ffd5b5f5ffd5b7f4e487b71000000000000000000000000000000000000000000000000000000005f52604160045260245ffd5b61153682611267565b810181811067ffffffffffffffff8211171561155557611554611500565b5b80604052505050565b5f61156761117b565b9050611573828261152d565b919050565b5f67ffffffffffffffff82111561159257611591611500565b5b61159b82611267565b9050602081019050919050565b828183375f83830152505050565b5f6115c86115c384611578565b61155e565b9050828152602081018484840111156115e4576115e36114fc565b5b6115ef8482856115a8565b509392505050565b5f82601f83011261160b5761160a6114f8565b5b813561161b8482602086016115b6565b91505092915050565b5f5f5f5f6080858703121561163c5761163b611184565b5b5f6116498782880161139b565b945050602061165a8782880161139b565b935050604061166b878288016112ee565b925050606085013567ffffffffffffffff81111561168c5761168b611188565b5b611698878288016115f7565b91505092959194509250565b5f5f604083850312156116ba576116b9611184565b5b5f6116c78582860161139b565b92505060206116d88582860161139b565b9150509250929050565b7f4e487b71000000000000000000000000000000000000000000000000000000005f52603260045260245ffd5b7f4e487b71000000000000000000000000000000000000000000000000000000005f52602260045260245ffd5b5f600282049050600182168061175357607f821691505b6020821081036117665761176561170f565b5b50919050565b5f81519050919050565b5f82825260208201905092915050565b5f6117908261176c565b61179a8185611776565b93506117aa818560208601611259565b6117b381611267565b840191505092915050565b5f6080820190506117d15f83018761135d565b6117de602083018661135d565b6117eb604083018561143d565b81810360608301526117fd8184611786565b905095945050505050565b5f81519050611816816111b7565b92915050565b5f6020828403121561183157611830611184565b5b5f61183e84828501611808565b9150509291505056fea2646970667358221220775cce137d46ad2840ab4346d98052a3e91ea935e4ea1078b1263a06eb5411cc64736f6c634300081f0033697066733a2f2f6261667962656962366c71326a367832773371356c33683272366e356b36783176376d347a397138703172327333743475357636773778387939612f322e6a736f6e697066733a2f2f6261667962656962366c71326a367832773371356c33683272366e356b36783176376d347a397138703172327333743475357636773778387939612f312e6a736f6e697066733a2f2f6261667962656962366c71326a367832773371356c33683272366e356b36783176376d347a397138703172327333743475357636773778387939612f332e6a736f6e","linkReferences":{}},"methodIdentifiers":{"MAX_SUPPLY()":"32cb6b0c","approve(address,uint256)":"095ea7b3","balanceOf(address)":"70a08231","getApproved(uint256)":"081812fc","isApprovedForAll(address,address)":"e985e9c5","mintNft()":"c2229fea","name()":"06fdde03","ownerOf(uint256)":"6352211e","safeTransferFrom(address,address,uint256)":"42842e0e","safeTransferFrom(address,address,uint256,bytes)":"b88d4fde","setApprovalForAll(address,bool)":"a22cb465","supportsInterface(bytes4)":"01ffc9a7","symbol()":"95d89b41","tokenURI(uint256)":"c87b56dd","totalMinted()":"a2309ff8","transferFrom(address,address,uint256)":"23b872dd"},"id":21}