{"abi":[{"type":"constructor","inputs":[{"name":"entranceFee","type":"uint256","internalType":"uint256"}],"stateMutability":"nonpayable"},{"type":"function","name":"enterRaffle","inputs":[],"outputs":[],"stateMutability":"nonpayable"},{"type":"function","name":"getEntranceFee","inputs":[],"outputs":[{"name":"","type":"uint256","internalType":"uint256"}],"stateMutability":"view"},{"type":"function","name":"pickWinner","inputs":[],"outputs":[],"stateMutability":"nonpayable"}],"bytecode":{"object":"0x60a0604052348015600e575f5ffd5b5060405161019e38038061019e8339818101604052810190602e9190606d565b8060808181525050506093565b5f5ffd5b5f819050919050565b604f81603f565b81146058575f5ffd5b50565b5f815190506067816048565b92915050565b5f60208284031215607f57607e603b565b5b5f608a84828501605b565b91505092915050565b60805160f66100a85f395f606b015260f65ff3fe6080604052348015600e575f5ffd5b5060043610603a575f3560e01c806309bc33a714603e5780632cfcc5391460585780635d495aea146060575b5f5ffd5b60446068565b604051604f919060a9565b60405180910390f35b605e608f565b005b60666091565b005b5f7f0000000000000000000000000000000000000000000000000000000000000000905090565b565b565b5f819050919050565b60a3816093565b82525050565b5f60208201905060ba5f830184609c565b9291505056fea2646970667358221220891b56e0bfe1442a7a705310b3755c6c136fc36e934476670184991b5824ce0664736f6c634300081f0033","linkReferences":{}},"methodIdentifiers":{"enterRaffle()":"2cfcc539","getEntranceFee()":"09bc33a7","pickWinner()":"5d495aea"},"id":0}